{
  "address": "0xCf7Ed3AccA5a467e9e704C703E8D87F634fB0Fc9",
  "abi": [
    {
      "inputs": [
        {
          "internalType": "address",
          "name": "vrfCoordinatorV2_address",
          "type": "address"
        },
        {
          "internalType": "uint256",
          "name": "entranceFee",
          "type": "uint256"
        },
        {
          "internalType": "bytes32",
          "name": "gasLane",
          "type": "bytes32"
        },
        {
          "internalType": "uint64",
          "name": "subscriptionId",
          "type": "uint64"
        },
        {
          "internalType": "uint32",
          "name": "callbackGasLimit",
          "type": "uint32"
        },
        {
          "internalType": "uint256",
          "name": "interval",
          "type": "uint256"
        }
      ],
      "stateMutability": "nonpayable",
      "type": "constructor"
    },
    {
      "inputs": [
        {
          "internalType": "address",
          "name": "have",
          "type": "address"
        },
        {
          "internalType": "address",
          "name": "want",
          "type": "address"
        }
      ],
      "name": "OnlyCoordinatorCanFulfill",
      "type": "error"
    },
    {
      "inputs": [
        {
          "internalType": "uint256",
          "name": "currentBalance",
          "type": "uint256"
        },
        {
          "internalType": "uint256",
          "name": "numberOfPlayers",
          "type": "uint256"
        },
        {
          "internalType": "uint256",
          "name": "raffleState",
          "type": "uint256"
        }
      ],
      "name": "Raffle_UpkeepNotNeeded",
      "type": "error"
    },
    {
      "inputs": [],
      "name": "Raffle__NotEnoughETHEntered",
      "type": "error"
    },
    {
      "inputs": [],
      "name": "Raffle__NotOpen",
      "type": "error"
    },
    {
      "inputs": [],
      "name": "Raffle__TransferFailed",
      "type": "error"
    },
    {
      "anonymous": false,
      "inputs": [
        {
          "indexed": true,
          "internalType": "address",
          "name": "player",
          "type": "address"
        }
      ],
      "name": "RaffleEnter",
      "type": "event"
    },
    {
      "anonymous": false,
      "inputs": [
        {
          "indexed": true,
          "internalType": "uint256",
          "name": "requestId",
          "type": "uint256"
        }
      ],
      "name": "RequestedRaffleWinner",
      "type": "event"
    },
    {
      "anonymous": false,
      "inputs": [
        {
          "indexed": true,
          "internalType": "address",
          "name": "winner",
          "type": "address"
        }
      ],
      "name": "WinnerPicked",
      "type": "event"
    },
    {
      "inputs": [
        {
          "internalType": "bytes",
          "name": "",
          "type": "bytes"
        }
      ],
      "name": "checkUpkeep",
      "outputs": [
        {
          "internalType": "bool",
          "name": "upkeepNeeded",
          "type": "bool"
        },
        {
          "internalType": "bytes",
          "name": "",
          "type": "bytes"
        }
      ],
      "stateMutability": "view",
      "type": "function"
    },
    {
      "inputs": [],
      "name": "enterRaffle",
      "outputs": [],
      "stateMutability": "payable",
      "type": "function"
    },
    {
      "inputs": [],
      "name": "getEntranceFee",
      "outputs": [
        {
          "internalType": "uint256",
          "name": "",
          "type": "uint256"
        }
      ],
      "stateMutability": "view",
      "type": "function"
    },
    {
      "inputs": [],
      "name": "getInterval",
      "outputs": [
        {
          "internalType": "uint256",
          "name": "",
          "type": "uint256"
        }
      ],
      "stateMutability": "view",
      "type": "function"
    },
    {
      "inputs": [],
      "name": "getLastTimeStamp",
      "outputs": [
        {
          "internalType": "uint256",
          "name": "",
          "type": "uint256"
        }
      ],
      "stateMutability": "view",
      "type": "function"
    },
    {
      "inputs": [],
      "name": "getNumberOfPlayers",
      "outputs": [
        {
          "internalType": "uint256",
          "name": "",
          "type": "uint256"
        }
      ],
      "stateMutability": "view",
      "type": "function"
    },
    {
      "inputs": [],
      "name": "getNumberOfWords",
      "outputs": [
        {
          "internalType": "uint32",
          "name": "",
          "type": "uint32"
        }
      ],
      "stateMutability": "pure",
      "type": "function"
    },
    {
      "inputs": [
        {
          "internalType": "uint256",
          "name": "index",
          "type": "uint256"
        }
      ],
      "name": "getPlayerAt",
      "outputs": [
        {
          "internalType": "address",
          "name": "",
          "type": "address"
        }
      ],
      "stateMutability": "view",
      "type": "function"
    },
    {
      "inputs": [],
      "name": "getRaffleState",
      "outputs": [
        {
          "internalType": "enum Raffle.RaffleState",
          "name": "",
          "type": "uint8"
        }
      ],
      "stateMutability": "view",
      "type": "function"
    },
    {
      "inputs": [],
      "name": "getRecentWinnerAddress",
      "outputs": [
        {
          "internalType": "address",
          "name": "",
          "type": "address"
        }
      ],
      "stateMutability": "view",
      "type": "function"
    },
    {
      "inputs": [],
      "name": "getRequestConfirmations",
      "outputs": [
        {
          "internalType": "uint16",
          "name": "",
          "type": "uint16"
        }
      ],
      "stateMutability": "pure",
      "type": "function"
    },
    {
      "inputs": [],
      "name": "getSubscriptionId",
      "outputs": [
        {
          "internalType": "uint64",
          "name": "",
          "type": "uint64"
        }
      ],
      "stateMutability": "view",
      "type": "function"
    },
    {
      "inputs": [
        {
          "internalType": "bytes",
          "name": "",
          "type": "bytes"
        }
      ],
      "name": "performUpkeep",
      "outputs": [],
      "stateMutability": "nonpayable",
      "type": "function"
    },
    {
      "inputs": [
        {
          "internalType": "uint256",
          "name": "requestId",
          "type": "uint256"
        },
        {
          "internalType": "uint256[]",
          "name": "randomWords",
          "type": "uint256[]"
        }
      ],
      "name": "rawFulfillRandomWords",
      "outputs": [],
      "stateMutability": "nonpayable",
      "type": "function"
    }
  ],
  "transactionHash": "0x98e0da454a8bcd85eb462eb078d22dce38a5f1ef8384029b4607c8894933f4ea",
  "args": [
    "0x5FbDB2315678afecb367f032d93F642f64180aa3",
    "10000000000000000",
    "0x474e34a077df58807dbe9c96d3c009b23b3c6d0cce433e59bbf5b34f823bc56c",
    1,
    "500000",
    "30"
  ],
  "numDeployments": 1,
  "solcInputHash": "10c53e9e0b8cb5955d9f6425d5db9578",
  "bytecode": "0x6101606040523480156200001257600080fd5b5060405162001919380380620019198339818101604052810190620000389190620001ad565b858073ffffffffffffffffffffffffffffffffffffffff1660808173ffffffffffffffffffffffffffffffffffffffff1660601b81525050508460c081815250508573ffffffffffffffffffffffffffffffffffffffff1660a08173ffffffffffffffffffffffffffffffffffffffff1660601b815250508360e081815250508267ffffffffffffffff166101008167ffffffffffffffff1660c01b815250508163ffffffff166101208163ffffffff1660e01b815250506000600160146101000a81548160ff02191690836001811115620001195762000118620002b5565b5b0217905550426002819055508061014081815250505050505050506200036b565b6000815190506200014b81620002e9565b92915050565b600081519050620001628162000303565b92915050565b60008151905062000179816200031d565b92915050565b600081519050620001908162000337565b92915050565b600081519050620001a78162000351565b92915050565b60008060008060008060c08789031215620001cd57620001cc620002e4565b5b6000620001dd89828a016200013a565b9650506020620001f089828a0162000168565b95505060406200020389828a0162000151565b94505060606200021689828a0162000196565b93505060806200022989828a016200017f565b92505060a06200023c89828a0162000168565b9150509295509295509295565b6000620002568262000267565b9050919050565b6000819050919050565b600073ffffffffffffffffffffffffffffffffffffffff82169050919050565b6000819050919050565b600063ffffffff82169050919050565b600067ffffffffffffffff82169050919050565b7f4e487b7100000000000000000000000000000000000000000000000000000000600052602160045260246000fd5b600080fd5b620002f48162000249565b81146200030057600080fd5b50565b6200030e816200025d565b81146200031a57600080fd5b50565b620003288162000287565b81146200033457600080fd5b50565b620003428162000291565b81146200034e57600080fd5b50565b6200035c81620002a1565b81146200036857600080fd5b50565b60805160601c60a05160601c60c05160e0516101005160c01c6101205160e01c6101405161152b620003ee600039600081816107f60152610890015260006106e10152600081816106be01526109330152600061069d015260008181610340015261043d0152600061066101526000818161037d01526103d1015261152b6000f3fe6080604052600436106100dd5760003560e01c80636f9d9c841161007f578063c8bc9f2211610059578063c8bc9f221461027e578063ceb73f45146102a9578063de3d9fb7146102e6578063fd6673f514610311576100dd565b80636f9d9c84146101fd57806391ad27b414610228578063c1c244e814610253576100dd565b80632cfcc539116100bb5780632cfcc539146101615780634585e33b1461016b5780635f1b0fd8146101945780636e04ff0d146101bf576100dd565b806309bc33a7146100e2578063115cbaf51461010d5780631fe543e314610138575b600080fd5b3480156100ee57600080fd5b506100f761033c565b60405161010491906110fb565b60405180910390f35b34801561011957600080fd5b50610122610364565b60405161012f91906110c5565b60405180910390f35b34801561014457600080fd5b5061015f600480360381019061015a9190610eb9565b61037b565b005b61016961043b565b005b34801561017757600080fd5b50610192600480360381019061018d9190610dc9565b6105aa565b005b3480156101a057600080fd5b506101a96107a9565b6040516101b691906110e0565b60405180910390f35b3480156101cb57600080fd5b506101e660048036038101906101e19190610e16565b6107b2565b6040516101f4929190611042565b60405180910390f35b34801561020957600080fd5b50610212610883565b60405161021f919061114d565b60405180910390f35b34801561023457600080fd5b5061023d61088c565b60405161024a91906110fb565b60405180910390f35b34801561025f57600080fd5b506102686108b4565b60405161027591906110fb565b60405180910390f35b34801561028a57600080fd5b506102936108be565b6040516102a09190610ffe565b60405180910390f35b3480156102b557600080fd5b506102d060048036038101906102cb9190610e5f565b6108e8565b6040516102dd9190610ffe565b60405180910390f35b3480156102f257600080fd5b506102fb61092f565b6040516103089190611168565b60405180910390f35b34801561031d57600080fd5b50610326610957565b60405161033391906110fb565b60405180910390f35b60007f0000000000000000000000000000000000000000000000000000000000000000905090565b6000600160149054906101000a900460ff16905090565b7f000000000000000000000000000000000000000000000000000000000000000073ffffffffffffffffffffffffffffffffffffffff163373ffffffffffffffffffffffffffffffffffffffff161461042d57337f00000000000000000000000000000000000000000000000000000000000000006040517f1cf993f4000000000000000000000000000000000000000000000000000000008152600401610424929190611019565b60405180910390fd5b6104378282610963565b5050565b7f0000000000000000000000000000000000000000000000000000000000000000341015610495576040517fbd4e069500000000000000000000000000000000000000000000000000000000815260040160405180910390fd5b600060018111156104a9576104a861140b565b5b600160149054906101000a900460ff1660018111156104cb576104ca61140b565b5b14610502576040517f1425571c00000000000000000000000000000000000000000000000000000000815260040160405180910390fd5b6000339080600181540180825580915050600190039060005260206000200160009091909190916101000a81548173ffffffffffffffffffffffffffffffffffffffff021916908373ffffffffffffffffffffffffffffffffffffffff1602179055503373ffffffffffffffffffffffffffffffffffffffff167f0805e1d667bddb8a95f0f09880cf94f403fb596ce79928d9f29b74203ba284d460405160405180910390a2565b60006105c4604051806020016040528060008152506107b2565b509050806106335747600080549050600160149054906101000a900460ff1660018111156105f5576105f461140b565b5b6040517fe059521b00000000000000000000000000000000000000000000000000000000815260040161062a93929190611116565b60405180910390fd5b60018060146101000a81548160ff021916908360018111156106585761065761140b565b5b021790555060007f000000000000000000000000000000000000000000000000000000000000000073ffffffffffffffffffffffffffffffffffffffff16635d3b1d307f00000000000000000000000000000000000000000000000000000000000000007f000000000000000000000000000000000000000000000000000000000000000060037f000000000000000000000000000000000000000000000000000000000000000060016040518663ffffffff1660e01b8152600401610722959493929190611072565b602060405180830381600087803b15801561073c57600080fd5b505af1158015610750573d6000803e3d6000fd5b505050506040513d601f19601f820116820180604052508101906107749190610e8c565b9050807fcd6e45c8998311cab7e9d4385596cac867e20a0587194b954fa3a731c93ce78b60405160405180910390a250505050565b60006003905090565b60006060600060018111156107ca576107c961140b565b5b600160149054906101000a900460ff1660018111156107ec576107eb61140b565b5b14801561082557507f000000000000000000000000000000000000000000000000000000000000000060025442610823919061122c565b115b8015610835575060008080549050115b80156108415750600047115b9150816040518060400160405280600381526020017f307830000000000000000000000000000000000000000000000000000000000081525091509150915091565b60006001905090565b60007f0000000000000000000000000000000000000000000000000000000000000000905090565b6000600254905090565b6000600160009054906101000a900473ffffffffffffffffffffffffffffffffffffffff16905090565b60008082815481106108fd576108fc61143a565b5b9060005260206000200160009054906101000a900473ffffffffffffffffffffffffffffffffffffffff169050919050565b60007f0000000000000000000000000000000000000000000000000000000000000000905090565b60008080549050905090565b600080805490508260008151811061097e5761097d61143a565b5b6020026020010151610990919061137c565b905060008082815481106109a7576109a661143a565b5b9060005260206000200160009054906101000a900473ffffffffffffffffffffffffffffffffffffffff16905080600160006101000a81548173ffffffffffffffffffffffffffffffffffffffff021916908373ffffffffffffffffffffffffffffffffffffffff160217905550600067ffffffffffffffff811115610a3057610a2f611469565b5b604051908082528060200260200182016040528015610a5e5781602001602082028036833780820191505090505b5060009080519060200190610a74929190610b94565b5060008173ffffffffffffffffffffffffffffffffffffffff1647604051610a9b90610fe9565b60006040518083038185875af1925050503d8060008114610ad8576040519150601f19603f3d011682016040523d82523d6000602084013e610add565b606091505b5050905080610b18576040517fa1d04b3900000000000000000000000000000000000000000000000000000000815260040160405180910390fd5b8173ffffffffffffffffffffffffffffffffffffffff167f5b690ec4a06fe979403046eaeea5b3ce38524683c3001f662c8b5a829632f7df60405160405180910390a2426002819055506000600160146101000a81548160ff02191690836001811115610b8857610b8761140b565b5b02179055505050505050565b828054828255906000526020600020908101928215610c0d579160200282015b82811115610c0c5782518260006101000a81548173ffffffffffffffffffffffffffffffffffffffff021916908373ffffffffffffffffffffffffffffffffffffffff16021790555091602001919060010190610bb4565b5b509050610c1a9190610c1e565b5090565b5b80821115610c37576000816000905550600101610c1f565b5090565b6000610c4e610c49846111a8565b611183565b90508083825260208201905082856020860282011115610c7157610c706114a2565b5b60005b85811015610ca15781610c878882610d9f565b845260208401935060208301925050600181019050610c74565b5050509392505050565b6000610cbe610cb9846111d4565b611183565b905082815260208101848484011115610cda57610cd96114a7565b5b610ce5848285611309565b509392505050565b600082601f830112610d0257610d0161149d565b5b8135610d12848260208601610c3b565b91505092915050565b60008083601f840112610d3157610d3061149d565b5b8235905067ffffffffffffffff811115610d4e57610d4d611498565b5b602083019150836001820283011115610d6a57610d696114a2565b5b9250929050565b600082601f830112610d8657610d8561149d565b5b8135610d96848260208601610cab565b91505092915050565b600081359050610dae816114de565b92915050565b600081519050610dc3816114de565b92915050565b60008060208385031215610de057610ddf6114b1565b5b600083013567ffffffffffffffff811115610dfe57610dfd6114ac565b5b610e0a85828601610d1b565b92509250509250929050565b600060208284031215610e2c57610e2b6114b1565b5b600082013567ffffffffffffffff811115610e4a57610e496114ac565b5b610e5684828501610d71565b91505092915050565b600060208284031215610e7557610e746114b1565b5b6000610e8384828501610d9f565b91505092915050565b600060208284031215610ea257610ea16114b1565b5b6000610eb084828501610db4565b91505092915050565b60008060408385031215610ed057610ecf6114b1565b5b6000610ede85828601610d9f565b925050602083013567ffffffffffffffff811115610eff57610efe6114ac565b5b610f0b85828601610ced565b9150509250929050565b610f1e81611260565b82525050565b610f2d81611272565b82525050565b610f3c8161127e565b82525050565b6000610f4d82611205565b610f578185611210565b9350610f67818560208601611318565b610f70816114b6565b840191505092915050565b610f84816112f7565b82525050565b6000610f97600083611221565b9150610fa2826114c7565b600082019050919050565b610fb68161129b565b82525050565b610fc5816112c9565b82525050565b610fd4816112d3565b82525050565b610fe3816112e3565b82525050565b6000610ff482610f8a565b9150819050919050565b60006020820190506110136000830184610f15565b92915050565b600060408201905061102e6000830185610f15565b61103b6020830184610f15565b9392505050565b60006040820190506110576000830185610f24565b81810360208301526110698184610f42565b90509392505050565b600060a0820190506110876000830188610f33565b6110946020830187610fda565b6110a16040830186610fad565b6110ae6060830185610fcb565b6110bb6080830184610fcb565b9695505050505050565b60006020820190506110da6000830184610f7b565b92915050565b60006020820190506110f56000830184610fad565b92915050565b60006020820190506111106000830184610fbc565b92915050565b600060608201905061112b6000830186610fbc565b6111386020830185610fbc565b6111456040830184610fbc565b949350505050565b60006020820190506111626000830184610fcb565b92915050565b600060208201905061117d6000830184610fda565b92915050565b600061118d61119e565b9050611199828261134b565b919050565b6000604051905090565b600067ffffffffffffffff8211156111c3576111c2611469565b5b602082029050602081019050919050565b600067ffffffffffffffff8211156111ef576111ee611469565b5b6111f8826114b6565b9050602081019050919050565b600081519050919050565b600082825260208201905092915050565b600081905092915050565b6000611237826112c9565b9150611242836112c9565b925082821015611255576112546113ad565b5b828203905092915050565b600061126b826112a9565b9050919050565b60008115159050919050565b6000819050919050565b6000819050611296826114ca565b919050565b600061ffff82169050919050565b600073ffffffffffffffffffffffffffffffffffffffff82169050919050565b6000819050919050565b600063ffffffff82169050919050565b600067ffffffffffffffff82169050919050565b600061130282611288565b9050919050565b82818337600083830152505050565b60005b8381101561133657808201518184015260208101905061131b565b83811115611345576000848401525b50505050565b611354826114b6565b810181811067ffffffffffffffff8211171561137357611372611469565b5b80604052505050565b6000611387826112c9565b9150611392836112c9565b9250826113a2576113a16113dc565b5b828206905092915050565b7f4e487b7100000000000000000000000000000000000000000000000000000000600052601160045260246000fd5b7f4e487b7100000000000000000000000000000000000000000000000000000000600052601260045260246000fd5b7f4e487b7100000000000000000000000000000000000000000000000000000000600052602160045260246000fd5b7f4e487b7100000000000000000000000000000000000000000000000000000000600052603260045260246000fd5b7f4e487b7100000000000000000000000000000000000000000000000000000000600052604160045260246000fd5b600080fd5b600080fd5b600080fd5b600080fd5b600080fd5b600080fd5b6000601f19601f8301169050919050565b50565b600281106114db576114da61140b565b5b50565b6114e7816112c9565b81146114f257600080fd5b5056fea264697066735822122006e4971183ed0faab286e1d60503641bf001f3fe83e225b6af850c81893b458664736f6c63430008070033",
  "devdoc": {
    "kind": "dev",
    "methods": {
      "checkUpkeep(bytes)": {
        "details": "This is the function that the chainlink Keeper node call they look for the upkeepNeeded to return true The following should be true in order to return true 1. Our time interval should have passed 2. Lottery should have atleast 1 player, and have some eth 3. Then our subscription is funded with LINK 4. The lottery should be in an \"open\" state."
      }
    },
    "version": 1
  },
  "userdoc": {
    "kind": "user",
    "methods": {},
    "version": 1
  },
  "storageLayout": {
    "storage": [
      {
        "astId": 1162,
        "contract": "contracts/Raffle.sol:Raffle",
        "label": "s_players",
        "offset": 0,
        "slot": "0",
        "type": "t_array(t_address_payable)dyn_storage"
      },
      {
        "astId": 1178,
        "contract": "contracts/Raffle.sol:Raffle",
        "label": "s_recentWinnerAddress",
        "offset": 0,
        "slot": "1",
        "type": "t_address"
      },
      {
        "astId": 1181,
        "contract": "contracts/Raffle.sol:Raffle",
        "label": "s_raffleState",
        "offset": 20,
        "slot": "1",
        "type": "t_enum(RaffleState)1156"
      },
      {
        "astId": 1183,
        "contract": "contracts/Raffle.sol:Raffle",
        "label": "s_lastTimeStamp",
        "offset": 0,
        "slot": "2",
        "type": "t_uint256"
      }
    ],
    "types": {
      "t_address": {
        "encoding": "inplace",
        "label": "address",
        "numberOfBytes": "20"
      },
      "t_address_payable": {
        "encoding": "inplace",
        "label": "address payable",
        "numberOfBytes": "20"
      },
      "t_array(t_address_payable)dyn_storage": {
        "base": "t_address_payable",
        "encoding": "dynamic_array",
        "label": "address payable[]",
        "numberOfBytes": "32"
      },
      "t_enum(RaffleState)1156": {
        "encoding": "inplace",
        "label": "enum Raffle.RaffleState",
        "numberOfBytes": "1"
      },
      "t_uint256": {
        "encoding": "inplace",
        "label": "uint256",
        "numberOfBytes": "32"
      }
    }
  }
}