{
  "address": "0xc0aF9e123e3463f4b7BAfA511E2D7fa6bce96194",
  "abi": [
    {
      "inputs": [
        {
          "internalType": "address",
          "name": "vrfCoordinatorV2_address",
          "type": "address"
        },
        {
          "internalType": "uint256",
          "name": "entranceFee",
          "type": "uint256"
        },
        {
          "internalType": "bytes32",
          "name": "gasLane",
          "type": "bytes32"
        },
        {
          "internalType": "uint64",
          "name": "subscriptionId",
          "type": "uint64"
        },
        {
          "internalType": "uint32",
          "name": "callbackGasLimit",
          "type": "uint32"
        },
        {
          "internalType": "uint256",
          "name": "interval",
          "type": "uint256"
        }
      ],
      "stateMutability": "nonpayable",
      "type": "constructor"
    },
    {
      "inputs": [
        {
          "internalType": "address",
          "name": "have",
          "type": "address"
        },
        {
          "internalType": "address",
          "name": "want",
          "type": "address"
        }
      ],
      "name": "OnlyCoordinatorCanFulfill",
      "type": "error"
    },
    {
      "inputs": [
        {
          "internalType": "uint256",
          "name": "currentBalance",
          "type": "uint256"
        },
        {
          "internalType": "uint256",
          "name": "numberOfPlayers",
          "type": "uint256"
        },
        {
          "internalType": "uint256",
          "name": "raffleState",
          "type": "uint256"
        }
      ],
      "name": "Raffle_UpkeepNotNeeded",
      "type": "error"
    },
    {
      "inputs": [],
      "name": "Raffle__NotEnoughETHEntered",
      "type": "error"
    },
    {
      "inputs": [],
      "name": "Raffle__NotOpen",
      "type": "error"
    },
    {
      "inputs": [],
      "name": "Raffle__TransferFailed",
      "type": "error"
    },
    {
      "anonymous": false,
      "inputs": [
        {
          "indexed": true,
          "internalType": "address",
          "name": "player",
          "type": "address"
        }
      ],
      "name": "RaffleEnter",
      "type": "event"
    },
    {
      "anonymous": false,
      "inputs": [
        {
          "indexed": true,
          "internalType": "uint256",
          "name": "requestId",
          "type": "uint256"
        }
      ],
      "name": "RequestedRaffleWinner",
      "type": "event"
    },
    {
      "anonymous": false,
      "inputs": [
        {
          "indexed": true,
          "internalType": "address",
          "name": "winner",
          "type": "address"
        }
      ],
      "name": "WinnerPicked",
      "type": "event"
    },
    {
      "inputs": [
        {
          "internalType": "bytes",
          "name": "",
          "type": "bytes"
        }
      ],
      "name": "checkUpkeep",
      "outputs": [
        {
          "internalType": "bool",
          "name": "upkeepNeeded",
          "type": "bool"
        },
        {
          "internalType": "bytes",
          "name": "",
          "type": "bytes"
        }
      ],
      "stateMutability": "view",
      "type": "function"
    },
    {
      "inputs": [],
      "name": "enterRaffle",
      "outputs": [],
      "stateMutability": "payable",
      "type": "function"
    },
    {
      "inputs": [],
      "name": "fetRequestConfirmations",
      "outputs": [
        {
          "internalType": "uint16",
          "name": "",
          "type": "uint16"
        }
      ],
      "stateMutability": "pure",
      "type": "function"
    },
    {
      "inputs": [],
      "name": "getEntraneFee",
      "outputs": [
        {
          "internalType": "uint256",
          "name": "",
          "type": "uint256"
        }
      ],
      "stateMutability": "view",
      "type": "function"
    },
    {
      "inputs": [],
      "name": "getInterval",
      "outputs": [
        {
          "internalType": "uint256",
          "name": "",
          "type": "uint256"
        }
      ],
      "stateMutability": "view",
      "type": "function"
    },
    {
      "inputs": [],
      "name": "getLastTimeStamp",
      "outputs": [
        {
          "internalType": "uint256",
          "name": "",
          "type": "uint256"
        }
      ],
      "stateMutability": "view",
      "type": "function"
    },
    {
      "inputs": [],
      "name": "getNumberOfPlayers",
      "outputs": [
        {
          "internalType": "uint256",
          "name": "",
          "type": "uint256"
        }
      ],
      "stateMutability": "view",
      "type": "function"
    },
    {
      "inputs": [],
      "name": "getNumberOfWords",
      "outputs": [
        {
          "internalType": "uint32",
          "name": "",
          "type": "uint32"
        }
      ],
      "stateMutability": "pure",
      "type": "function"
    },
    {
      "inputs": [
        {
          "internalType": "uint256",
          "name": "index",
          "type": "uint256"
        }
      ],
      "name": "getPlayerAt",
      "outputs": [
        {
          "internalType": "address",
          "name": "",
          "type": "address"
        }
      ],
      "stateMutability": "view",
      "type": "function"
    },
    {
      "inputs": [],
      "name": "getRaffleState",
      "outputs": [
        {
          "internalType": "enum Raffle.RaffleState",
          "name": "",
          "type": "uint8"
        }
      ],
      "stateMutability": "view",
      "type": "function"
    },
    {
      "inputs": [],
      "name": "getRecentWinnerAddress",
      "outputs": [
        {
          "internalType": "address",
          "name": "",
          "type": "address"
        }
      ],
      "stateMutability": "view",
      "type": "function"
    },
    {
      "inputs": [
        {
          "internalType": "bytes",
          "name": "",
          "type": "bytes"
        }
      ],
      "name": "performUpkeep",
      "outputs": [],
      "stateMutability": "nonpayable",
      "type": "function"
    },
    {
      "inputs": [
        {
          "internalType": "uint256",
          "name": "requestId",
          "type": "uint256"
        },
        {
          "internalType": "uint256[]",
          "name": "randomWords",
          "type": "uint256[]"
        }
      ],
      "name": "rawFulfillRandomWords",
      "outputs": [],
      "stateMutability": "nonpayable",
      "type": "function"
    }
  ],
  "transactionHash": "0x898c5c96c78dcb750f369f16c546e534c26a14cfa982fd2883b9296a5a708e1f",
  "args": [
    "0x0B5DeDD634D884522f1929AD29dC4E20Af11442B",
    "10000000000000000",
    "0x474e34a077df58807dbe9c96d3c009b23b3c6d0cce433e59bbf5b34f823bc56c",
    1,
    "500000",
    "30"
  ],
  "numDeployments": 1,
  "solcInputHash": "5f839bc49827213d5e0484d1d0098a8b",
  "bytecode": "0x6101606040523480156200001257600080fd5b5060405162001889380380620018898339818101604052810190620000389190620001ad565b858073ffffffffffffffffffffffffffffffffffffffff1660808173ffffffffffffffffffffffffffffffffffffffff1660601b81525050508460c081815250508573ffffffffffffffffffffffffffffffffffffffff1660a08173ffffffffffffffffffffffffffffffffffffffff1660601b815250508360e081815250508267ffffffffffffffff166101008167ffffffffffffffff1660c01b815250508163ffffffff166101208163ffffffff1660e01b815250506000600160146101000a81548160ff02191690836001811115620001195762000118620002b5565b5b0217905550426002819055508061014081815250505050505050506200036b565b6000815190506200014b81620002e9565b92915050565b600081519050620001628162000303565b92915050565b60008151905062000179816200031d565b92915050565b600081519050620001908162000337565b92915050565b600081519050620001a78162000351565b92915050565b60008060008060008060c08789031215620001cd57620001cc620002e4565b5b6000620001dd89828a016200013a565b9650506020620001f089828a0162000168565b95505060406200020389828a0162000151565b94505060606200021689828a0162000196565b93505060806200022989828a016200017f565b92505060a06200023c89828a0162000168565b9150509295509295509295565b6000620002568262000267565b9050919050565b6000819050919050565b600073ffffffffffffffffffffffffffffffffffffffff82169050919050565b6000819050919050565b600063ffffffff82169050919050565b600067ffffffffffffffff82169050919050565b7f4e487b7100000000000000000000000000000000000000000000000000000000600052602160045260246000fd5b600080fd5b620002f48162000249565b81146200030057600080fd5b50565b6200030e816200025d565b81146200031a57600080fd5b50565b620003288162000287565b81146200033457600080fd5b50565b620003428162000291565b81146200034e57600080fd5b50565b6200035c81620002a1565b81146200036857600080fd5b50565b60805160601c60a05160601c60c05160e0516101005160c01c6101205160e01c610140516114a2620003e760003960008181610788015261082201526000610673015260006106500152600061062f0152600081816103cf01526108c5015260006105f301526000818161030f015261036301526114a26000f3fe6080604052600436106100c25760003560e01c80636f9d9c841161007f578063c8bc9f2211610059578063c8bc9f2214610238578063ceb73f4514610263578063f8bae51d146102a0578063fd6673f5146102cb576100c2565b80636f9d9c84146101b757806391ad27b4146101e2578063c1c244e81461020d576100c2565b8063115cbaf5146100c75780631fe543e3146100f25780632cfcc5391461011b5780634585e33b146101255780636a8816eb1461014e5780636e04ff0d14610179575b600080fd5b3480156100d357600080fd5b506100dc6102f6565b6040516100e99190611057565b60405180910390f35b3480156100fe57600080fd5b5061011960048036038101906101149190610e4b565b61030d565b005b6101236103cd565b005b34801561013157600080fd5b5061014c60048036038101906101479190610d5b565b61053c565b005b34801561015a57600080fd5b5061016361073b565b6040516101709190611072565b60405180910390f35b34801561018557600080fd5b506101a0600480360381019061019b9190610da8565b610744565b6040516101ae929190610fd4565b60405180910390f35b3480156101c357600080fd5b506101cc610815565b6040516101d991906110df565b60405180910390f35b3480156101ee57600080fd5b506101f761081e565b604051610204919061108d565b60405180910390f35b34801561021957600080fd5b50610222610846565b60405161022f919061108d565b60405180910390f35b34801561024457600080fd5b5061024d610850565b60405161025a9190610f90565b60405180910390f35b34801561026f57600080fd5b5061028a60048036038101906102859190610df1565b61087a565b6040516102979190610f90565b60405180910390f35b3480156102ac57600080fd5b506102b56108c1565b6040516102c2919061108d565b60405180910390f35b3480156102d757600080fd5b506102e06108e9565b6040516102ed919061108d565b60405180910390f35b6000600160149054906101000a900460ff16905090565b7f000000000000000000000000000000000000000000000000000000000000000073ffffffffffffffffffffffffffffffffffffffff163373ffffffffffffffffffffffffffffffffffffffff16146103bf57337f00000000000000000000000000000000000000000000000000000000000000006040517f1cf993f40000000000000000000000000000000000000000000000000000000081526004016103b6929190610fab565b60405180910390fd5b6103c982826108f5565b5050565b7f0000000000000000000000000000000000000000000000000000000000000000341015610427576040517fbd4e069500000000000000000000000000000000000000000000000000000000815260040160405180910390fd5b6000600181111561043b5761043a611382565b5b600160149054906101000a900460ff16600181111561045d5761045c611382565b5b14610494576040517f1425571c00000000000000000000000000000000000000000000000000000000815260040160405180910390fd5b6000339080600181540180825580915050600190039060005260206000200160009091909190916101000a81548173ffffffffffffffffffffffffffffffffffffffff021916908373ffffffffffffffffffffffffffffffffffffffff1602179055503373ffffffffffffffffffffffffffffffffffffffff167f0805e1d667bddb8a95f0f09880cf94f403fb596ce79928d9f29b74203ba284d460405160405180910390a2565b600061055660405180602001604052806000815250610744565b509050806105c55747600080549050600160149054906101000a900460ff16600181111561058757610586611382565b5b6040517fe059521b0000000000000000000000000000000000000000000000000000000081526004016105bc939291906110a8565b60405180910390fd5b60018060146101000a81548160ff021916908360018111156105ea576105e9611382565b5b021790555060007f000000000000000000000000000000000000000000000000000000000000000073ffffffffffffffffffffffffffffffffffffffff16635d3b1d307f00000000000000000000000000000000000000000000000000000000000000007f000000000000000000000000000000000000000000000000000000000000000060037f000000000000000000000000000000000000000000000000000000000000000060016040518663ffffffff1660e01b81526004016106b4959493929190611004565b602060405180830381600087803b1580156106ce57600080fd5b505af11580156106e2573d6000803e3d6000fd5b505050506040513d601f19601f820116820180604052508101906107069190610e1e565b9050807fcd6e45c8998311cab7e9d4385596cac867e20a0587194b954fa3a731c93ce78b60405160405180910390a250505050565b60006003905090565b600060606000600181111561075c5761075b611382565b5b600160149054906101000a900460ff16600181111561077e5761077d611382565b5b1480156107b757507f0000000000000000000000000000000000000000000000000000000000000000600254426107b591906111a3565b115b80156107c7575060008080549050115b80156107d35750600047115b9150816040518060400160405280600381526020017f307830000000000000000000000000000000000000000000000000000000000081525091509150915091565b60006001905090565b60007f0000000000000000000000000000000000000000000000000000000000000000905090565b6000600254905090565b6000600160009054906101000a900473ffffffffffffffffffffffffffffffffffffffff16905090565b600080828154811061088f5761088e6113b1565b5b9060005260206000200160009054906101000a900473ffffffffffffffffffffffffffffffffffffffff169050919050565b60007f0000000000000000000000000000000000000000000000000000000000000000905090565b60008080549050905090565b60008080549050826000815181106109105761090f6113b1565b5b602002602001015161092291906112f3565b90506000808281548110610939576109386113b1565b5b9060005260206000200160009054906101000a900473ffffffffffffffffffffffffffffffffffffffff16905080600160006101000a81548173ffffffffffffffffffffffffffffffffffffffff021916908373ffffffffffffffffffffffffffffffffffffffff160217905550600067ffffffffffffffff8111156109c2576109c16113e0565b5b6040519080825280602002602001820160405280156109f05781602001602082028036833780820191505090505b5060009080519060200190610a06929190610b26565b5060008173ffffffffffffffffffffffffffffffffffffffff1647604051610a2d90610f7b565b60006040518083038185875af1925050503d8060008114610a6a576040519150601f19603f3d011682016040523d82523d6000602084013e610a6f565b606091505b5050905080610aaa576040517fa1d04b3900000000000000000000000000000000000000000000000000000000815260040160405180910390fd5b8173ffffffffffffffffffffffffffffffffffffffff167f5b690ec4a06fe979403046eaeea5b3ce38524683c3001f662c8b5a829632f7df60405160405180910390a2426002819055506000600160146101000a81548160ff02191690836001811115610b1a57610b19611382565b5b02179055505050505050565b828054828255906000526020600020908101928215610b9f579160200282015b82811115610b9e5782518260006101000a81548173ffffffffffffffffffffffffffffffffffffffff021916908373ffffffffffffffffffffffffffffffffffffffff16021790555091602001919060010190610b46565b5b509050610bac9190610bb0565b5090565b5b80821115610bc9576000816000905550600101610bb1565b5090565b6000610be0610bdb8461111f565b6110fa565b90508083825260208201905082856020860282011115610c0357610c02611419565b5b60005b85811015610c335781610c198882610d31565b845260208401935060208301925050600181019050610c06565b5050509392505050565b6000610c50610c4b8461114b565b6110fa565b905082815260208101848484011115610c6c57610c6b61141e565b5b610c77848285611280565b509392505050565b600082601f830112610c9457610c93611414565b5b8135610ca4848260208601610bcd565b91505092915050565b60008083601f840112610cc357610cc2611414565b5b8235905067ffffffffffffffff811115610ce057610cdf61140f565b5b602083019150836001820283011115610cfc57610cfb611419565b5b9250929050565b600082601f830112610d1857610d17611414565b5b8135610d28848260208601610c3d565b91505092915050565b600081359050610d4081611455565b92915050565b600081519050610d5581611455565b92915050565b60008060208385031215610d7257610d71611428565b5b600083013567ffffffffffffffff811115610d9057610d8f611423565b5b610d9c85828601610cad565b92509250509250929050565b600060208284031215610dbe57610dbd611428565b5b600082013567ffffffffffffffff811115610ddc57610ddb611423565b5b610de884828501610d03565b91505092915050565b600060208284031215610e0757610e06611428565b5b6000610e1584828501610d31565b91505092915050565b600060208284031215610e3457610e33611428565b5b6000610e4284828501610d46565b91505092915050565b60008060408385031215610e6257610e61611428565b5b6000610e7085828601610d31565b925050602083013567ffffffffffffffff811115610e9157610e90611423565b5b610e9d85828601610c7f565b9150509250929050565b610eb0816111d7565b82525050565b610ebf816111e9565b82525050565b610ece816111f5565b82525050565b6000610edf8261117c565b610ee98185611187565b9350610ef981856020860161128f565b610f028161142d565b840191505092915050565b610f168161126e565b82525050565b6000610f29600083611198565b9150610f348261143e565b600082019050919050565b610f4881611212565b82525050565b610f5781611240565b82525050565b610f668161124a565b82525050565b610f758161125a565b82525050565b6000610f8682610f1c565b9150819050919050565b6000602082019050610fa56000830184610ea7565b92915050565b6000604082019050610fc06000830185610ea7565b610fcd6020830184610ea7565b9392505050565b6000604082019050610fe96000830185610eb6565b8181036020830152610ffb8184610ed4565b90509392505050565b600060a0820190506110196000830188610ec5565b6110266020830187610f6c565b6110336040830186610f3f565b6110406060830185610f5d565b61104d6080830184610f5d565b9695505050505050565b600060208201905061106c6000830184610f0d565b92915050565b60006020820190506110876000830184610f3f565b92915050565b60006020820190506110a26000830184610f4e565b92915050565b60006060820190506110bd6000830186610f4e565b6110ca6020830185610f4e565b6110d76040830184610f4e565b949350505050565b60006020820190506110f46000830184610f5d565b92915050565b6000611104611115565b905061111082826112c2565b919050565b6000604051905090565b600067ffffffffffffffff82111561113a576111396113e0565b5b602082029050602081019050919050565b600067ffffffffffffffff821115611166576111656113e0565b5b61116f8261142d565b9050602081019050919050565b600081519050919050565b600082825260208201905092915050565b600081905092915050565b60006111ae82611240565b91506111b983611240565b9250828210156111cc576111cb611324565b5b828203905092915050565b60006111e282611220565b9050919050565b60008115159050919050565b6000819050919050565b600081905061120d82611441565b919050565b600061ffff82169050919050565b600073ffffffffffffffffffffffffffffffffffffffff82169050919050565b6000819050919050565b600063ffffffff82169050919050565b600067ffffffffffffffff82169050919050565b6000611279826111ff565b9050919050565b82818337600083830152505050565b60005b838110156112ad578082015181840152602081019050611292565b838111156112bc576000848401525b50505050565b6112cb8261142d565b810181811067ffffffffffffffff821117156112ea576112e96113e0565b5b80604052505050565b60006112fe82611240565b915061130983611240565b92508261131957611318611353565b5b828206905092915050565b7f4e487b7100000000000000000000000000000000000000000000000000000000600052601160045260246000fd5b7f4e487b7100000000000000000000000000000000000000000000000000000000600052601260045260246000fd5b7f4e487b7100000000000000000000000000000000000000000000000000000000600052602160045260246000fd5b7f4e487b7100000000000000000000000000000000000000000000000000000000600052603260045260246000fd5b7f4e487b7100000000000000000000000000000000000000000000000000000000600052604160045260246000fd5b600080fd5b600080fd5b600080fd5b600080fd5b600080fd5b600080fd5b6000601f19601f8301169050919050565b50565b6002811061145257611451611382565b5b50565b61145e81611240565b811461146957600080fd5b5056fea2646970667358221220f28e48a1af7ec65c9f71df024722284089636b6cbe098cb3dd6d954a9c7d0aaf64736f6c63430008070033",
  "devdoc": {
    "kind": "dev",
    "methods": {
      "checkUpkeep(bytes)": {
        "details": "This is the function that the chainlink Keeper node call they look for the upkeepNeeded to return true The following should be true in order to return true 1. Our time interval should have passed 2. Lottery should have atleast 1 player, and have some eth 3. Then our subscription is funded with LINK 4. The lottery should be in an \"open\" state."
      }
    },
    "version": 1
  },
  "userdoc": {
    "kind": "user",
    "methods": {},
    "version": 1
  },
  "storageLayout": {
    "storage": [
      {
        "astId": 208,
        "contract": "contracts/Raffle.sol:Raffle",
        "label": "s_players",
        "offset": 0,
        "slot": "0",
        "type": "t_array(t_address_payable)dyn_storage"
      },
      {
        "astId": 224,
        "contract": "contracts/Raffle.sol:Raffle",
        "label": "s_recentWinnerAddress",
        "offset": 0,
        "slot": "1",
        "type": "t_address"
      },
      {
        "astId": 227,
        "contract": "contracts/Raffle.sol:Raffle",
        "label": "s_raffleState",
        "offset": 20,
        "slot": "1",
        "type": "t_enum(RaffleState)202"
      },
      {
        "astId": 229,
        "contract": "contracts/Raffle.sol:Raffle",
        "label": "s_lastTimeStamp",
        "offset": 0,
        "slot": "2",
        "type": "t_uint256"
      }
    ],
    "types": {
      "t_address": {
        "encoding": "inplace",
        "label": "address",
        "numberOfBytes": "20"
      },
      "t_address_payable": {
        "encoding": "inplace",
        "label": "address payable",
        "numberOfBytes": "20"
      },
      "t_array(t_address_payable)dyn_storage": {
        "base": "t_address_payable",
        "encoding": "dynamic_array",
        "label": "address payable[]",
        "numberOfBytes": "32"
      },
      "t_enum(RaffleState)202": {
        "encoding": "inplace",
        "label": "enum Raffle.RaffleState",
        "numberOfBytes": "1"
      },
      "t_uint256": {
        "encoding": "inplace",
        "label": "uint256",
        "numberOfBytes": "32"
      }
    }
  }
}